{
  "_format": "hh-sol-artifact-1",
  "contractName": "Rebase",
  "sourceName": "contracts/Rebase.sol",
  "abi": [
    {
      "inputs": [
        {
          "internalType": "address",
          "name": "oracleAddress",
          "type": "address"
        },
        {
          "internalType": "address",
          "name": "stableCoinAddress",
          "type": "address"
        }
      ],
      "stateMutability": "nonpayable",
      "type": "constructor"
    },
    {
      "inputs": [],
      "name": "EnforcedPause",
      "type": "error"
    },
    {
      "inputs": [],
      "name": "ExpectedPause",
      "type": "error"
    },
    {
      "inputs": [
        {
          "internalType": "address",
          "name": "owner",
          "type": "address"
        }
      ],
      "name": "OwnableInvalidOwner",
      "type": "error"
    },
    {
      "inputs": [
        {
          "internalType": "address",
          "name": "account",
          "type": "address"
        }
      ],
      "name": "OwnableUnauthorizedAccount",
      "type": "error"
    },
    {
      "anonymous": false,
      "inputs": [
        {
          "indexed": true,
          "internalType": "address",
          "name": "previousOwner",
          "type": "address"
        },
        {
          "indexed": true,
          "internalType": "address",
          "name": "newOwner",
          "type": "address"
        }
      ],
      "name": "OwnershipTransferred",
      "type": "event"
    },
    {
      "anonymous": false,
      "inputs": [
        {
          "indexed": false,
          "internalType": "address",
          "name": "account",
          "type": "address"
        }
      ],
      "name": "Paused",
      "type": "event"
    },
    {
      "anonymous": false,
      "inputs": [
        {
          "indexed": false,
          "internalType": "address",
          "name": "account",
          "type": "address"
        }
      ],
      "name": "Unpaused",
      "type": "event"
    },
    {
      "anonymous": false,
      "inputs": [
        {
          "indexed": true,
          "internalType": "uint256",
          "name": "timestamp",
          "type": "uint256"
        },
        {
          "indexed": false,
          "internalType": "uint256",
          "name": "oldSupply",
          "type": "uint256"
        },
        {
          "indexed": false,
          "internalType": "uint256",
          "name": "newSupply",
          "type": "uint256"
        }
      ],
      "name": "Updated",
      "type": "event"
    },
    {
      "inputs": [],
      "name": "deposit",
      "outputs": [],
      "stateMutability": "payable",
      "type": "function"
    },
    {
      "inputs": [
        {
          "internalType": "address",
          "name": "",
          "type": "address"
        }
      ],
      "name": "ehtBalance",
      "outputs": [
        {
          "internalType": "uint256",
          "name": "",
          "type": "uint256"
        }
      ],
      "stateMutability": "view",
      "type": "function"
    },
    {
      "inputs": [
        {
          "internalType": "uint256",
          "name": "weisPerPenny",
          "type": "uint256"
        }
      ],
      "name": "getParity",
      "outputs": [
        {
          "internalType": "uint256",
          "name": "",
          "type": "uint256"
        }
      ],
      "stateMutability": "view",
      "type": "function"
    },
    {
      "inputs": [
        {
          "internalType": "uint256",
          "name": "weisPerPenny",
          "type": "uint256"
        }
      ],
      "name": "initialize",
      "outputs": [],
      "stateMutability": "payable",
      "type": "function"
    },
    {
      "inputs": [],
      "name": "lastUpdate",
      "outputs": [
        {
          "internalType": "uint256",
          "name": "",
          "type": "uint256"
        }
      ],
      "stateMutability": "view",
      "type": "function"
    },
    {
      "inputs": [],
      "name": "oracle",
      "outputs": [
        {
          "internalType": "address",
          "name": "",
          "type": "address"
        }
      ],
      "stateMutability": "view",
      "type": "function"
    },
    {
      "inputs": [],
      "name": "owner",
      "outputs": [
        {
          "internalType": "address",
          "name": "",
          "type": "address"
        }
      ],
      "stateMutability": "view",
      "type": "function"
    },
    {
      "inputs": [],
      "name": "pause",
      "outputs": [],
      "stateMutability": "nonpayable",
      "type": "function"
    },
    {
      "inputs": [],
      "name": "paused",
      "outputs": [
        {
          "internalType": "bool",
          "name": "",
          "type": "bool"
        }
      ],
      "stateMutability": "view",
      "type": "function"
    },
    {
      "inputs": [],
      "name": "renounceOwnership",
      "outputs": [],
      "stateMutability": "nonpayable",
      "type": "function"
    },
    {
      "inputs": [
        {
          "internalType": "address",
          "name": "newOracle",
          "type": "address"
        }
      ],
      "name": "setOracle",
      "outputs": [],
      "stateMutability": "nonpayable",
      "type": "function"
    },
    {
      "inputs": [
        {
          "internalType": "uint256",
          "name": "newToleranceInSeconds",
          "type": "uint256"
        }
      ],
      "name": "setUpdateTolerance",
      "outputs": [],
      "stateMutability": "nonpayable",
      "type": "function"
    },
    {
      "inputs": [],
      "name": "stableCoin",
      "outputs": [
        {
          "internalType": "address",
          "name": "",
          "type": "address"
        }
      ],
      "stateMutability": "view",
      "type": "function"
    },
    {
      "inputs": [
        {
          "internalType": "address",
          "name": "newOwner",
          "type": "address"
        }
      ],
      "name": "transferOwnership",
      "outputs": [],
      "stateMutability": "nonpayable",
      "type": "function"
    },
    {
      "inputs": [],
      "name": "unpause",
      "outputs": [],
      "stateMutability": "nonpayable",
      "type": "function"
    },
    {
      "inputs": [
        {
          "internalType": "uint256",
          "name": "weisPerPenny",
          "type": "uint256"
        }
      ],
      "name": "update",
      "outputs": [],
      "stateMutability": "nonpayable",
      "type": "function"
    },
    {
      "inputs": [
        {
          "internalType": "uint256",
          "name": "amountEth",
          "type": "uint256"
        }
      ],
      "name": "withdrawEth",
      "outputs": [],
      "stateMutability": "nonpayable",
      "type": "function"
    },
    {
      "inputs": [
        {
          "internalType": "uint256",
          "name": "amountUsda",
          "type": "uint256"
        }
      ],
      "name": "withdrawUsda",
      "outputs": [],
      "stateMutability": "nonpayable",
      "type": "function"
    }
  ],
  "bytecode": "0x608060405261012c60055534801561001657600080fd5b506040516115e13803806115e18339810160408190526100359161010f565b338061005b57604051631e4fbdf760e01b81526000600482015260240160405180910390fd5b610064816100a3565b506000805460ff60a01b19169055600180546001600160a01b039384166001600160a01b03199182161790915560028054929093169116179055610142565b600080546001600160a01b038381166001600160a01b0319831681178455604051919092169283917f8be0079c531659141344cd1fd0a4f28419497f9722a3daafe3b4186f6b6457e09190a35050565b80516001600160a01b038116811461010a57600080fd5b919050565b6000806040838503121561012257600080fd5b61012b836100f3565b9150610139602084016100f3565b90509250929050565b611490806101516000396000f3fe6080604052600436106101295760003560e01c806382ab890a116100a5578063c046371111610074578063d0e30db011610059578063d0e30db014610325578063f2fde38b1461032d578063fe4b84df1461034d57600080fd5b8063c0463711146102ef578063c311d0491461030557600080fd5b806382ab890a1461027c5780638456cb591461029c5780638da5cb5b146102b1578063992642e5146102cf57600080fd5b80635c975abb116100fc578063715018a6116100e1578063715018a61461020f5780637adbf973146102245780637dc0d1d01461024457600080fd5b80635c975abb146101c55780636791f8b6146101ef57600080fd5b80633402995a1461012e5780633a7b5d9a146101615780633f4ba83a146101835780633fffe75f14610198575b600080fd5b34801561013a57600080fd5b5061014e610149366004611390565b610360565b6040519081526020015b60405180910390f35b34801561016d57600080fd5b5061018161017c366004611390565b61047f565b005b34801561018f57600080fd5b50610181610506565b3480156101a457600080fd5b5061014e6101b33660046113a9565b60036020526000908152604090205481565b3480156101d157600080fd5b50600054600160a01b900460ff166040519015158152602001610158565b3480156101fb57600080fd5b5061018161020a366004611390565b610518565b34801561021b57600080fd5b506101816107c0565b34801561023057600080fd5b5061018161023f3660046113a9565b6107d2565b34801561025057600080fd5b50600154610264906001600160a01b031681565b6040516001600160a01b039091168152602001610158565b34801561028857600080fd5b50610181610297366004611390565b61085f565b3480156102a857600080fd5b506101816109a7565b3480156102bd57600080fd5b506000546001600160a01b0316610264565b3480156102db57600080fd5b50600254610264906001600160a01b031681565b3480156102fb57600080fd5b5061014e60045481565b34801561031157600080fd5b50610181610320366004611390565b6109b7565b610181610bd6565b34801561033957600080fd5b506101816103483660046113a9565b610dc5565b61018161035b366004611390565b610e1c565b6000816000036103e457600160009054906101000a90046001600160a01b03166001600160a01b0316633a9d03026040518163ffffffff1660e01b8152600401602060405180830381865afa1580156103bd573d6000803e3d6000fd5b505050506040513d601f19601f820116820180604052508101906103e191906113d9565b91505b600254604080516318160ddd60e01b815290516000926001600160a01b0316916318160ddd9160048083019260209291908290030181865afa15801561042e573d6000803e3d6000fd5b505050506040513d601f19601f8201168201806040525081019061045291906113d9565b61045d906064611408565b9050600061046b8447611425565b90506104778183611425565b949350505050565b610487610f23565b600081116105015760405162461bcd60e51b8152602060048201526024808201527f546f6c6572616e636520696e207365636f6e64732063616e6e6f74206265207a60448201527f65726f2e0000000000000000000000000000000000000000000000000000000060648201526084015b60405180910390fd5b600555565b61050e610f23565b610516610f69565b565b610520610fbe565b60055461052d9042611447565b60045410156105a6576040805162461bcd60e51b81526020600482015260248101919091527f52656261736520636f6e7472616374206973207061757365642e20547279206160448201527f6761696e206c61746572206f7220636f6e74616374207468652061646d696e2e60648201526084016104f8565b6002546040517f70a0823100000000000000000000000000000000000000000000000000000000815233600482015282916001600160a01b0316906370a0823190602401602060405180830381865afa158015610607573d6000803e3d6000fd5b505050506040513d601f19601f8201168201806040525081019061062b91906113d9565b10156106795760405162461bcd60e51b815260206004820152601a60248201527f496e73756666696369656e7420555344412062616c616e63652e00000000000060448201526064016104f8565b600254604051632770a7eb60e21b8152336004820152602481018390526001600160a01b0390911690639dc29fac90604401600060405180830381600087803b1580156106c557600080fd5b505af11580156106d9573d6000803e3d6000fd5b505050506000600160009054906101000a90046001600160a01b03166001600160a01b0316633a9d03026040518163ffffffff1660e01b8152600401602060405180830381865afa158015610732573d6000803e3d6000fd5b505050506040513d601f19601f8201168201806040525081019061075691906113d9565b905060006107648284611408565b33600090815260036020526040812080549293508392909190610788908490611447565b9091555050604051339082156108fc029083906000818181858888f193505050501580156107ba573d6000803e3d6000fd5b50505050565b6107c8610f23565b6105166000611002565b6107da610f23565b6001600160a01b0381166108305760405162461bcd60e51b815260206004820152601d60248201527f4f7261636c6520616464726573732063616e6e6f74206265207a65726f00000060448201526064016104f8565b6001805473ffffffffffffffffffffffffffffffffffffffff19166001600160a01b0392909216919091179055565b6001546001600160a01b031633146108df5760405162461bcd60e51b815260206004820152602360248201527f4f6e6c7920746865206f7261636c652063616e206d616b65207468697320636160448201527f6c6c2e000000000000000000000000000000000000000000000000000000000060648201526084016104f8565b600254604080516318160ddd60e01b815290516000926001600160a01b0316916318160ddd9160048083019260209291908290030181865afa158015610929573d6000803e3d6000fd5b505050506040513d601f19601f8201168201806040525081019061094d91906113d9565b9050600061095a8361105f565b905080156109a25742600481905560408051848152602081018490527f6642e1e496629680de50fd66c266da5b2787a13fe171acf2c954ed368c852bc2910160405180910390a25b505050565b6109af610f23565b61051661130a565b6109bf610fbe565b6005546109cc9042611447565b6004541015610a45576040805162461bcd60e51b81526020600482015260248101919091527f52656261736520636f6e7472616374206973207061757365642e20547279206160448201527f6761696e206c61746572206f7220636f6e74616374207468652061646d696e2e60648201526084016104f8565b33600090815260036020526040902054811115610aa45760405162461bcd60e51b815260206004820152601560248201527f496e73756666696369656e742062616c616e63652e000000000000000000000060448201526064016104f8565b3360009081526003602052604081208054839290610ac3908490611447565b909155505060015460408051631d4e818160e11b815290516000926001600160a01b031691633a9d03029160048083019260209291908290030181865afa158015610b12573d6000803e3d6000fd5b505050506040513d601f19601f82011682018060405250810190610b3691906113d9565b90506000610b448284611425565b600254604051632770a7eb60e21b8152336004820152602481018390529192506001600160a01b031690639dc29fac90604401600060405180830381600087803b158015610b9157600080fd5b505af1158015610ba5573d6000803e3d6000fd5b505060405133925085156108fc02915085906000818181858888f193505050501580156107ba573d6000803e3d6000fd5b610bde610fbe565b600554610beb9042611447565b6004541015610c64576040805162461bcd60e51b81526020600482015260248101919091527f52656261736520636f6e7472616374206973207061757365642e20547279206160448201527f6761696e206c61746572206f7220636f6e74616374207468652061646d696e2e60648201526084016104f8565b60015460408051631d4e818160e11b815290516000926001600160a01b031691633a9d03029160048083019260209291908290030181865afa158015610cae573d6000803e3d6000fd5b505050506040513d601f19601f82011682018060405250810190610cd291906113d9565b905080341015610d245760405162461bcd60e51b815260206004820152601560248201527f496e73756666696369656e74206465706f7369742e000000000000000000000060448201526064016104f8565b3360009081526003602052604081203490819055610d43908390611425565b6002546040517f40c10f19000000000000000000000000000000000000000000000000000000008152336004820152602481018390529192506001600160a01b0316906340c10f1990604401600060405180830381600087803b158015610da957600080fd5b505af1158015610dbd573d6000803e3d6000fd5b505050505050565b610dcd610f23565b6001600160a01b038116610e10576040517f1e4fbdf7000000000000000000000000000000000000000000000000000000008152600060048201526024016104f8565b610e1981611002565b50565b610e24610f23565b60008111610e745760405162461bcd60e51b815260206004820152601960248201527f57656920726174696f2063616e6e6f74206265207a65726f2e0000000000000060448201526064016104f8565b33600081815260036020526040902034908190556002546001600160a01b0316916340c10f1991610ea6908590611425565b6040517fffffffff0000000000000000000000000000000000000000000000000000000060e085901b1681526001600160a01b0390921660048301526024820152604401600060405180830381600087803b158015610f0457600080fd5b505af1158015610f18573d6000803e3d6000fd5b505042600455505050565b6000546001600160a01b03163314610516576040517f118cdaa70000000000000000000000000000000000000000000000000000000081523360048201526024016104f8565b610f7161134d565b6000805460ff60a01b191690557f5db9ee0a495bf2e6ff9c91a7834c1ba4fdd244a5e8aa4e537bd38aeae4b073aa335b6040516001600160a01b03909116815260200160405180910390a1565b600054600160a01b900460ff1615610516576040517fd93c066500000000000000000000000000000000000000000000000000000000815260040160405180910390fd5b600080546001600160a01b0383811673ffffffffffffffffffffffffffffffffffffffff19831681178455604051919092169283917f8be0079c531659141344cd1fd0a4f28419497f9722a3daafe3b4186f6b6457e09190a35050565b60008061106b83610360565b9050806000036110865761107d61130a565b50600092915050565b600254604080516318160ddd60e01b815290516001600160a01b039092169160009183916318160ddd916004808201926020929091908290030181865afa1580156110d5573d6000803e3d6000fd5b505050506040513d601f19601f820116820180604052508101906110f991906113d9565b90508260640361110b57949350505050565b60648311156111d757600060646111228186611447565b61112c9084611408565b6111369190611425565b9050826001600160a01b0316639dc29fac6111596000546001600160a01b031690565b6040517fffffffff0000000000000000000000000000000000000000000000000000000060e084901b1681526001600160a01b03909116600482015260248101849052604401600060405180830381600087803b1580156111b957600080fd5b505af11580156111cd573d6000803e3d6000fd5b505050505061129f565b606483101561129f57600060646111ee8582611447565b6111f89084611408565b6112029190611425565b9050826001600160a01b03166340c10f196112256000546001600160a01b031690565b6040517fffffffff0000000000000000000000000000000000000000000000000000000060e084901b1681526001600160a01b03909116600482015260248101849052604401600060405180830381600087803b15801561128557600080fd5b505af1158015611299573d6000803e3d6000fd5b50505050505b816001600160a01b03166318160ddd6040518163ffffffff1660e01b8152600401602060405180830381865afa1580156112dd573d6000803e3d6000fd5b505050506040513d601f19601f8201168201806040525081019061130191906113d9565b95945050505050565b611312610fbe565b6000805460ff60a01b1916600160a01b1790557f62e78cea01bee320cd4e420270b5ea74000d11b0c9f74754ebdbfc544b05a258610fa13390565b600054600160a01b900460ff16610516576040517f8dfc202b00000000000000000000000000000000000000000000000000000000815260040160405180910390fd5b6000602082840312156113a257600080fd5b5035919050565b6000602082840312156113bb57600080fd5b81356001600160a01b03811681146113d257600080fd5b9392505050565b6000602082840312156113eb57600080fd5b5051919050565b634e487b7160e01b600052601160045260246000fd5b808202811582820484141761141f5761141f6113f2565b92915050565b60008261144257634e487b7160e01b600052601260045260246000fd5b500490565b8181038181111561141f5761141f6113f256fea264697066735822122020508a43c8c5073464c3f25674f44d4823cde7d6af421093f48e7cd5457b5b5764736f6c634300081b0033",
  "linkReferences": {},
  "deployedLinkReferences": {}
}