{
  "_format": "hh-sol-artifact-1",
  "contractName": "WeiUsdOracle",
  "sourceName": "contracts/WeiUsdOracle.sol",
  "abi": [
    {
      "inputs": [
        {
          "internalType": "uint256",
          "name": "ethPriceInPenny",
          "type": "uint256"
        }
      ],
      "stateMutability": "nonpayable",
      "type": "constructor"
    },
    {
      "inputs": [
        {
          "internalType": "address",
          "name": "owner",
          "type": "address"
        }
      ],
      "name": "OwnableInvalidOwner",
      "type": "error"
    },
    {
      "inputs": [
        {
          "internalType": "address",
          "name": "account",
          "type": "address"
        }
      ],
      "name": "OwnableUnauthorizedAccount",
      "type": "error"
    },
    {
      "anonymous": false,
      "inputs": [
        {
          "indexed": false,
          "internalType": "address[]",
          "name": "subscribers",
          "type": "address[]"
        }
      ],
      "name": "AllUpdated",
      "type": "event"
    },
    {
      "anonymous": false,
      "inputs": [
        {
          "indexed": true,
          "internalType": "address",
          "name": "previousOwner",
          "type": "address"
        },
        {
          "indexed": true,
          "internalType": "address",
          "name": "newOwner",
          "type": "address"
        }
      ],
      "name": "OwnershipTransferred",
      "type": "event"
    },
    {
      "anonymous": false,
      "inputs": [
        {
          "indexed": true,
          "internalType": "address",
          "name": "subscriber",
          "type": "address"
        }
      ],
      "name": "Subscribed",
      "type": "event"
    },
    {
      "anonymous": false,
      "inputs": [
        {
          "indexed": true,
          "internalType": "address",
          "name": "subscriber",
          "type": "address"
        }
      ],
      "name": "Unsubscribed",
      "type": "event"
    },
    {
      "inputs": [],
      "name": "getWeiRatio",
      "outputs": [
        {
          "internalType": "uint256",
          "name": "",
          "type": "uint256"
        }
      ],
      "stateMutability": "view",
      "type": "function"
    },
    {
      "inputs": [],
      "name": "lastUpdate",
      "outputs": [
        {
          "internalType": "uint256",
          "name": "",
          "type": "uint256"
        }
      ],
      "stateMutability": "view",
      "type": "function"
    },
    {
      "inputs": [],
      "name": "owner",
      "outputs": [
        {
          "internalType": "address",
          "name": "",
          "type": "address"
        }
      ],
      "stateMutability": "view",
      "type": "function"
    },
    {
      "inputs": [],
      "name": "renounceOwnership",
      "outputs": [],
      "stateMutability": "nonpayable",
      "type": "function"
    },
    {
      "inputs": [
        {
          "internalType": "uint256",
          "name": "ethPriceInPenny",
          "type": "uint256"
        }
      ],
      "name": "setEthPrice",
      "outputs": [],
      "stateMutability": "nonpayable",
      "type": "function"
    },
    {
      "inputs": [
        {
          "internalType": "address",
          "name": "subscriber",
          "type": "address"
        }
      ],
      "name": "subscribe",
      "outputs": [],
      "stateMutability": "nonpayable",
      "type": "function"
    },
    {
      "inputs": [
        {
          "internalType": "uint256",
          "name": "",
          "type": "uint256"
        }
      ],
      "name": "subscribers",
      "outputs": [
        {
          "internalType": "address",
          "name": "",
          "type": "address"
        }
      ],
      "stateMutability": "view",
      "type": "function"
    },
    {
      "inputs": [
        {
          "internalType": "address",
          "name": "newOwner",
          "type": "address"
        }
      ],
      "name": "transferOwnership",
      "outputs": [],
      "stateMutability": "nonpayable",
      "type": "function"
    },
    {
      "inputs": [
        {
          "internalType": "address",
          "name": "subscriber",
          "type": "address"
        }
      ],
      "name": "unsubscribe",
      "outputs": [],
      "stateMutability": "nonpayable",
      "type": "function"
    }
  ],
  "bytecode": "0x60806040526000600155600060025534801561001a57600080fd5b5060405161099a38038061099a833981016040819052610039916100ec565b338061005f57604051631e4fbdf760e01b81526000600482015260240160405180910390fd5b61006881610082565b506000610074826100d2565b600155505042600255610127565b600080546001600160a01b038381166001600160a01b0319831681178455604051919092169283917f8be0079c531659141344cd1fd0a4f28419497f9722a3daafe3b4186f6b6457e09190a35050565b60006100e682670de0b6b3a7640000610105565b92915050565b6000602082840312156100fe57600080fd5b5051919050565b60008261012257634e487b7160e01b600052601260045260246000fd5b500490565b610864806101366000396000f3fe608060405234801561001057600080fd5b50600436106100a25760003560e01c8063715018a6116100765780638da5cb5b1161005b5780638da5cb5b1461012c578063c04637111461013d578063f2fde38b1461014657600080fd5b8063715018a6146101115780637262561c1461011957600080fd5b80629f9262146100a75780633a9d0302146100bc57806341a7726a146100d357806359221a68146100e6575b600080fd5b6100ba6100b536600461075e565b610159565b005b6001545b6040519081526020015b60405180910390f35b6100ba6100e1366004610777565b61033b565b6100f96100f436600461075e565b6104f8565b6040516001600160a01b0390911681526020016100ca565b6100ba610522565b6100ba610127366004610777565b610536565b6000546001600160a01b03166100f9565b6100c060025481565b6100ba610154366004610777565b61064d565b600081116101ae5760405162461bcd60e51b815260206004820152601960248201527f4554482070726963652063616e6e6f74206265207a65726f2e0000000000000060448201526064015b60405180910390fd5b60006101b9826106a1565b90506000811161020b5760405162461bcd60e51b815260206004820152601960248201527f57656920526174696f2063616e6e6f74206265207a65726f2e0000000000000060448201526064016101a5565b60018190554260025560005b6003548110156102f55760006001600160a01b03166003828154811061023f5761023f6107a7565b6000918252602090912001546001600160a01b0316146102ed576003818154811061026c5761026c6107a7565b6000918252602090912001546040517f82ab890a000000000000000000000000000000000000000000000000000000008152600481018490526001600160a01b03909116906382ab890a90602401600060405180830381600087803b1580156102d457600080fd5b505af11580156102e8573d6000803e3d6000fd5b505050505b600101610217565b5060035415610337577f16021d6e2bead68861d6649a1d5d1b41bffb1d77e2ca4461a1804bf00cb75ef9600360405161032e91906107bd565b60405180910390a15b5050565b6103436106bb565b6001600160a01b0381166103995760405162461bcd60e51b815260206004820152601a60248201527f537562736372696265722063616e6e6f74206265207a65726f2e00000000000060448201526064016101a5565b6040516001600160a01b038216907fa88fac53823b534c72d6958345adbe6801e072750d83b490d52ebbac51473a6390600090a260005b60035481101561049b5760006001600160a01b0316600382815481106103f8576103f86107a7565b6000918252602090912001546001600160a01b031603610458578160038281548110610426576104266107a7565b9060005260206000200160006101000a8154816001600160a01b0302191690836001600160a01b031602179055505050565b816001600160a01b031660038281548110610475576104756107a7565b6000918252602090912001546001600160a01b031603610493575050565b6001016103d0565b50600380546001810182556000919091527fc2575a0e9e593c00f959f8c92f12db2869c3395a3b0502d05e2516446f71f85b01805473ffffffffffffffffffffffffffffffffffffffff19166001600160a01b0383161790555b50565b6003818154811061050857600080fd5b6000918252602090912001546001600160a01b0316905081565b61052a6106bb565b6105346000610701565b565b61053e6106bb565b6001600160a01b0381166105945760405162461bcd60e51b815260206004820152601a60248201527f537562736372696265722063616e6e6f74206265207a65726f2e00000000000060448201526064016101a5565b60005b60035481101561033757816001600160a01b0316600382815481106105be576105be6107a7565b6000918252602090912001546001600160a01b03160361064557600381815481106105eb576105eb6107a7565b60009182526020822001805473ffffffffffffffffffffffffffffffffffffffff191690556040516001600160a01b038416917fae563681ccc696fae58fe830f401bc9c043a43ddb9f7c2830b32c3c70d9966e791a25050565b600101610597565b6106556106bb565b6001600160a01b038116610698576040517f1e4fbdf7000000000000000000000000000000000000000000000000000000008152600060048201526024016101a5565b6104f581610701565b60006106b582670de0b6b3a764000061080c565b92915050565b6000546001600160a01b03163314610534576040517f118cdaa70000000000000000000000000000000000000000000000000000000081523360048201526024016101a5565b600080546001600160a01b0383811673ffffffffffffffffffffffffffffffffffffffff19831681178455604051919092169283917f8be0079c531659141344cd1fd0a4f28419497f9722a3daafe3b4186f6b6457e09190a35050565b60006020828403121561077057600080fd5b5035919050565b60006020828403121561078957600080fd5b81356001600160a01b03811681146107a057600080fd5b9392505050565b634e487b7160e01b600052603260045260246000fd5b602080825282548282018190526000848152918220906040840190835b818110156108015783546001600160a01b03168352600193840193602090930192016107da565b509095945050505050565b60008261082957634e487b7160e01b600052601260045260246000fd5b50049056fea26469706673582212206d72a333d4f6db14219e8b63946a475b9ca8fdf433315a22fa96d279e1bb2b3364736f6c634300081b0033",
  "linkReferences": {},
  "deployedLinkReferences": {}
}